{
  "contractName": "Factory",
  "abi": [
    {
      "inputs": [
        {
          "internalType": "address",
          "name": "tokenA",
          "type": "address"
        },
        {
          "internalType": "address",
          "name": "tokenB",
          "type": "address"
        }
      ],
      "name": "getPair",
      "outputs": [
        {
          "internalType": "address",
          "name": "pair",
          "type": "address"
        }
      ],
      "stateMutability": "view",
      "type": "function"
    },
    {
      "inputs": [
        {
          "internalType": "address",
          "name": "tokenA",
          "type": "address"
        },
        {
          "internalType": "address",
          "name": "tokenB",
          "type": "address"
        }
      ],
      "name": "createPair",
      "outputs": [
        {
          "internalType": "address",
          "name": "pair",
          "type": "address"
        }
      ],
      "stateMutability": "nonpayable",
      "type": "function"
    }
  ],
  "bytecode": "0x608060405234801561001057600080fd5b506101a5806100206000396000f3fe608060405234801561001057600080fd5b50600436106100365760003560e01c8063c9c653961461003b578063e6a439051461006b575b600080fd5b610055600480360381019061005091906100c0565b61009b565b604051610062919061010b565b60405180910390f35b610085600480360381019061008091906100c0565b6100a3565b604051610092919061010b565b60405180910390f35b600092915050565b600092915050565b6000813590506100ba81610158565b92915050565b600080604083850312156100d357600080fd5b60006100e1858286016100ab565b92505060206100f2858286016100ab565b9150509250929050565b61010581610126565b82525050565b600060208201905061012060008301846100fc565b92915050565b600061013182610138565b9050919050565b600073ffffffffffffffffffffffffffffffffffffffff82169050919050565b61016181610126565b811461016c57600080fd5b5056fea264697066735822122005c50fe890756088953eb72046b58acfaa97503a765e33baef09f913676dd34d64736f6c63430008000033",
  "immutableReferences": {},
  "source": "// SPDX-License-Identifier: MIT\npragma solidity ^0.8.0;\n\ncontract Factory {\n  function getPair(address tokenA, address tokenB) external view returns (address pair){}\n  function createPair(address tokenA, address tokenB) external returns (address pair) {}\n}\n",
  "sourcePath": "/Users/macos/Code/CodeForFun/solidity-samples/pancakeswap-pool/contracts/Factory.sol",
  "compiler": {
    "name": "solc",
    "version": "0.8.0+commit.c7dfd78e.Emscripten.clang"
  },
  "schemaVersion": "3.3.4",
  "updatedAt": "2021-04-18T15:11:11.146Z",
  "devdoc": {
    "kind": "dev",
    "methods": {},
    "version": 1
  },
  "userdoc": {
    "kind": "user",
    "methods": {},
    "version": 1
  }
}