{
  "contractName": "Pair",
  "abi": [
    {
      "inputs": [
        {
          "internalType": "address",
          "name": "owner",
          "type": "address"
        }
      ],
      "name": "balanceOf",
      "outputs": [
        {
          "internalType": "uint256",
          "name": "",
          "type": "uint256"
        }
      ],
      "stateMutability": "view",
      "type": "function"
    }
  ],
  "bytecode": "0x608060405234801561001057600080fd5b50610158806100206000396000f3fe608060405234801561001057600080fd5b506004361061002b5760003560e01c806370a0823114610030575b600080fd5b61004a6004803603810190610045919061007c565b610060565b60405161005791906100b4565b60405180910390f35b6000919050565b6000813590506100768161010b565b92915050565b60006020828403121561008e57600080fd5b600061009c84828501610067565b91505092915050565b6100ae81610101565b82525050565b60006020820190506100c960008301846100a5565b92915050565b60006100da826100e1565b9050919050565b600073ffffffffffffffffffffffffffffffffffffffff82169050919050565b6000819050919050565b610114816100cf565b811461011f57600080fd5b5056fea26469706673582212203f4e87e1db901d438792a4ac74d98d774b81c2adcec70e3d7e2ec75ffd4af8d764736f6c63430008000033",
  "immutableReferences": {},
  "source": "// SPDX-License-Identifier: MIT\npragma solidity ^0.8.0;\n\ncontract Pair {\n  function balanceOf(address owner) external view returns(uint) {}\n}\n",
  "sourcePath": "/Users/macos/0-solidity-samples/pancakeswap-pool/contracts/Pair.sol",
  "compiler": {
    "name": "solc",
    "version": "0.8.0+commit.c7dfd78e.Emscripten.clang"
  },
  "schemaVersion": "3.3.4",
  "updatedAt": "2021-04-28T22:41:23.339Z",
  "devdoc": {
    "kind": "dev",
    "methods": {},
    "version": 1
  },
  "userdoc": {
    "kind": "user",
    "methods": {},
    "version": 1
  }
}